{
  "contractName": "BuildingPermits",
  "abi": [
    {
      "constant": true,
      "inputs": [],
      "name": "permitCount",
      "outputs": [
        {
          "internalType": "uint256",
          "name": "",
          "type": "uint256"
        }
      ],
      "payable": false,
      "stateMutability": "view",
      "type": "function"
    },
    {
      "constant": true,
      "inputs": [
        {
          "internalType": "uint256",
          "name": "",
          "type": "uint256"
        }
      ],
      "name": "permits",
      "outputs": [
        {
          "internalType": "uint256",
          "name": "id",
          "type": "uint256"
        },
        {
          "internalType": "bool",
          "name": "applicantApprove",
          "type": "bool"
        },
        {
          "internalType": "bool",
          "name": "approvalOfPlanBoard",
          "type": "bool"
        },
        {
          "internalType": "string",
          "name": "permInfo",
          "type": "string"
        }
      ],
      "payable": false,
      "stateMutability": "view",
      "type": "function"
    },
    {
      "constant": false,
      "inputs": [
        {
          "internalType": "string",
          "name": "_permInfo",
          "type": "string"
        }
      ],
      "name": "createPermit",
      "outputs": [],
      "payable": false,
      "stateMutability": "nonpayable",
      "type": "function"
    }
  ],
  "bytecode": "0x60806040526000805534801561001457600080fd5b506103ca806100246000396000f3fe608060405234801561001057600080fd5b50600436106100415760003560e01c806306dc55d91461004657806356ee4cd0146100ee5780638521b6a414610108575b600080fd5b6100ec6004803603602081101561005c57600080fd5b81019060208101813564010000000081111561007757600080fd5b82018360208201111561008957600080fd5b803590602001918460018302840111640100000000831117156100ab57600080fd5b91908080601f0160208091040260200160405190810160405280939291908181526020018383808284376000920191909152509295506101ba945050505050565b005b6100f661023e565b60408051918252519081900360200190f35b6101256004803603602081101561011e57600080fd5b5035610244565b60405180858152602001841515151581526020018315151515815260200180602001828103825283818151815260200191508051906020019080838360005b8381101561017c578181015183820152602001610164565b50505050905090810190601f1680156101a95780820380516001836020036101000a031916815260200191505b509550505050505060405180910390f35b60008054600190810180835560408051608081018252828152602080820186815282840187815260608401898152958852868352939096208251815595519486018054935115156101000261ff001996151560ff199095169490941795909516929092179093559051805192939261023892600285019201906102fa565b50505050565b60005481565b6001602081815260009283526040928390208054818401546002808401805488516101009882161589026000190190911692909204601f8101879004870283018701909852878252929660ff8084169790930490921694909291908301828280156102f05780601f106102c5576101008083540402835291602001916102f0565b820191906000526020600020905b8154815290600101906020018083116102d357829003601f168201915b5050505050905084565b828054600181600116156101000203166002900490600052602060002090601f016020900481019282601f1061033b57805160ff1916838001178555610368565b82800160010185558215610368579182015b8281111561036857825182559160200191906001019061034d565b50610374929150610378565b5090565b61039291905b80821115610374576000815560010161037e565b9056fea265627a7a7231582069212e9b516c49cbba3119d75ead8b2ef2c76f2fc6f6f54fa44f46835d1c202f64736f6c63430005100032",
  "source": "pragma solidity >=0.4.22 <0.9.0;\n\ncontract BuildingPermits {\n    uint public permitCount = 0;\n\n    struct Permit {\n        uint id;\n        bool applicantApprove;\n        bool approvalOfPlanBoard;\n        string permInfo;\n    }\n\n    mapping(uint => Permit) public permits;\n\n    function createPermit(string memory _permInfo) public {\n        permitCount ++;\n        permits[permitCount] = Permit(\n            permitCount,\n            false,\n            false,\n            _permInfo\n        );\n    }\n}",
  "sourcePath": "/Users/ClaytonJohnson/Desktop/camelCloud/contracts/BuildingPermits.sol",
  "compiler": {
    "name": "solc",
    "version": "0.5.16+commit.9c3226ce.Emscripten.clang"
  },
  "schemaVersion": "3.4.3",
  "updatedAt": "2021-09-26T06:06:29.383Z",
  "networkType": "ethereum",
  "devdoc": {
    "methods": {}
  },
  "userdoc": {
    "methods": {}
  }
}