{
  "contractName": "MobileHomePermits",
  "abi": [
    {
      "constant": true,
      "inputs": [],
      "name": "permitCount",
      "outputs": [
        {
          "internalType": "uint256",
          "name": "",
          "type": "uint256"
        }
      ],
      "payable": false,
      "stateMutability": "view",
      "type": "function"
    },
    {
      "constant": true,
      "inputs": [
        {
          "internalType": "uint256",
          "name": "",
          "type": "uint256"
        }
      ],
      "name": "permits",
      "outputs": [
        {
          "internalType": "uint256",
          "name": "id",
          "type": "uint256"
        },
        {
          "internalType": "bool",
          "name": "applicantApprove",
          "type": "bool"
        },
        {
          "internalType": "string",
          "name": "permInfo",
          "type": "string"
        }
      ],
      "payable": false,
      "stateMutability": "view",
      "type": "function"
    },
    {
      "constant": false,
      "inputs": [
        {
          "internalType": "string",
          "name": "_permInfo",
          "type": "string"
        }
      ],
      "name": "createPermit",
      "outputs": [],
      "payable": false,
      "stateMutability": "nonpayable",
      "type": "function"
    }
  ],
  "bytecode": "0x60806040526000805534801561001457600080fd5b5061039a806100246000396000f3fe608060405234801561001057600080fd5b50600436106100415760003560e01c806306dc55d91461004657806356ee4cd0146100ee5780638521b6a414610108575b600080fd5b6100ec6004803603602081101561005c57600080fd5b81019060208101813564010000000081111561007757600080fd5b82018360208201111561008957600080fd5b803590602001918460018302840111640100000000831117156100ab57600080fd5b91908080601f0160208091040260200160405190810160405280939291908181526020018383808284376000920191909152509295506101af945050505050565b005b6100f6610217565b60408051918252519081900360200190f35b6101256004803603602081101561011e57600080fd5b503561021d565b604051808481526020018315151515815260200180602001828103825283818151815260200191508051906020019080838360005b8381101561017257818101518382015260200161015a565b50505050905090810190601f16801561019f5780820380516001836020036101000a031916815260200191505b5094505050505060405180910390f35b60008054600190810180835560408051606081018252828152602080820186815282840188815294875285825292909520815181559151938201805460ff191694151594909417909355905180519293919261021192600285019201906102ca565b50505050565b60005481565b6001602081815260009283526040928390208054818401546002808401805488516101009882161598909802600019011691909104601f8101869004860287018601909752868652919560ff9091169492938301828280156102c05780601f10610295576101008083540402835291602001916102c0565b820191906000526020600020905b8154815290600101906020018083116102a357829003601f168201915b5050505050905083565b828054600181600116156101000203166002900490600052602060002090601f016020900481019282601f1061030b57805160ff1916838001178555610338565b82800160010185558215610338579182015b8281111561033857825182559160200191906001019061031d565b50610344929150610348565b5090565b61036291905b80821115610344576000815560010161034e565b9056fea265627a7a723158202f274240428374bd354a19d3fee01eab10f5d8f169a76ad3ee9fa4ff57d65f6d64736f6c63430005100032",
  "source": "pragma solidity >=0.4.22 <0.9.0;\n\ncontract MobileHomePermits {\n    uint public permitCount = 0;\n\n    struct Permit {\n        uint id;\n        bool applicantApprove;\n        string permInfo;\n    }\n\n    mapping(uint => Permit) public permits;\n\n    function createPermit(string memory _permInfo) public {\n        permitCount ++;\n        permits[permitCount] = Permit(\n            permitCount,\n            false,\n            _permInfo\n        );\n    }\n}",
  "sourcePath": "/Users/ClaytonJohnson/Desktop/camelCloud/contracts/MobileHomePermits.sol",
  "compiler": {
    "name": "solc",
    "version": "0.5.16+commit.9c3226ce.Emscripten.clang"
  },
  "schemaVersion": "3.4.3",
  "updatedAt": "2021-09-26T06:53:45.437Z",
  "networkType": "ethereum",
  "devdoc": {
    "methods": {}
  },
  "userdoc": {
    "methods": {}
  }
}