{
  "contractName": "WaterIssues",
  "abi": [
    {
      "constant": true,
      "inputs": [],
      "name": "issueCount",
      "outputs": [
        {
          "internalType": "uint256",
          "name": "",
          "type": "uint256"
        }
      ],
      "payable": false,
      "stateMutability": "view",
      "type": "function"
    },
    {
      "constant": true,
      "inputs": [
        {
          "internalType": "uint256",
          "name": "",
          "type": "uint256"
        }
      ],
      "name": "issues",
      "outputs": [
        {
          "internalType": "uint256",
          "name": "id",
          "type": "uint256"
        },
        {
          "internalType": "string",
          "name": "permInfo",
          "type": "string"
        }
      ],
      "payable": false,
      "stateMutability": "view",
      "type": "function"
    },
    {
      "constant": false,
      "inputs": [
        {
          "internalType": "string",
          "name": "_permInfo",
          "type": "string"
        }
      ],
      "name": "createIssue",
      "outputs": [],
      "payable": false,
      "stateMutability": "nonpayable",
      "type": "function"
    }
  ],
  "bytecode": "0x60806040526000805534801561001457600080fd5b5061036c806100246000396000f3fe608060405234801561001057600080fd5b50600436106100415760003560e01c806304e15de51461004657806398cf147a146100e2578063e4587e75146100fc575b600080fd5b6100636004803603602081101561005c57600080fd5b50356101a4565b6040518083815260200180602001828103825283818151815260200191508051906020019080838360005b838110156100a657818101518382015260200161008e565b50505050905090810190601f1680156100d35780820380516001836020036101000a031916815260200191505b50935050505060405180910390f35b6100ea61024a565b60408051918252519081900360200190f35b6101a26004803603602081101561011257600080fd5b81019060208101813564010000000081111561012d57600080fd5b82018360208201111561013f57600080fd5b8035906020019184600183028401116401000000008311171561016157600080fd5b91908080601f016020809104026020016040519081016040528093929190818152602001838380828437600092019190915250929550610250945050505050565b005b600160208181526000928352604092839020805481840180548651600296821615610100026000190190911695909504601f810185900485028601850190965285855290949193929091908301828280156102405780601f1061021557610100808354040283529160200191610240565b820191906000526020600020905b81548152906001019060200180831161022357829003601f168201915b5050505050905082565b60005481565b600080546001908101808355604080518082018252828152602080820187815293865284815291909420845181559151805192936102969390850192919091019061029c565b50505050565b828054600181600116156101000203166002900490600052602060002090601f016020900481019282601f106102dd57805160ff191683800117855561030a565b8280016001018555821561030a579182015b8281111561030a5782518255916020019190600101906102ef565b5061031692915061031a565b5090565b61033491905b808211156103165760008155600101610320565b9056fea265627a7a72315820a92ef2f59dc7d97f917c58471f256d92567cc9e77aa8a3b5095b30bba15deeff64736f6c63430005100032",
  "source": "pragma solidity >=0.4.22 <0.9.0;\n\ncontract WaterIssues {\n    uint public issueCount = 0;\n\n    struct Issue {\n        uint id;\n        string permInfo;\n    }\n\n    mapping(uint => Issue) public issues;\n\n    function createIssue(string memory _permInfo) public {\n        issueCount ++;\n        issues[issueCount] = Issue(\n            issueCount,\n            _permInfo\n        );\n    }\n}",
  "sourcePath": "/Users/ClaytonJohnson/Desktop/camelCloud/contracts/WaterIssues.sol",
  "compiler": {
    "name": "solc",
    "version": "0.5.16+commit.9c3226ce.Emscripten.clang"
  },
  "schemaVersion": "3.4.3",
  "updatedAt": "2021-09-26T06:06:31.401Z",
  "networkType": "ethereum",
  "devdoc": {
    "methods": {}
  },
  "userdoc": {
    "methods": {}
  }
}